:020000021000EC
:1000B400130101FF9305000023248100232611006E
:1000C40013040500EF00002683A741926384070010
:1000D400E780070013050400EF0040481305000003
:1000E400678000009307000063880700370501005C
:1000F400130505476F004036678000009721000014
:10010400938181CA171500001305455C172600006A
:100114001306868A3306A64093050000EF00C0123A
:100124001705000013058533630805001705000053
:1001340013050534EF004032EF00C007032501002A
:100144009305410013060000EFF05FF96FF05FF6CE
:10015400130101FF2324810083C7C19223261100C8
:100164006392070293070000638A070037050100C2
:100174001305855997000000E7000000930710005D
:100184002386F1928320C10003248100130101011D
:100194006780000093070000638C070037050100A7
:1001A4009385019313058559170300006700000028
:1001B40067800000130101FF232481002320210113
:1001C400371401003719010023261100232291005E
:1001D4001309C9591304C4596302890233098940B4
:1001E40013592940930400008327040093841400C6
:1001F40013044400E7800700E3E824FF37190100F3
:10020400371401001309495A1304C45963028902BB
:1002140033098940135929409304000083270400BB
:100224009384140013044400E7800700E3E824FFE8
:100234008320C10003248100832441000329010099
:1002440013010101678000001303F0001307050088
:10025400637EC3029377F7006390070A63920508ED
:10026400937606FF1376F600B386E6002320B700E4
:100274002322B7002324B7002326B700130707015E
:10028400E366D7FE6314060067800000B306C3402C
:100294009396260097020000B38656006780C60036
:1002A4002307B700A306B7002306B700A305B700CA
:1002B4002305B700A304B7002304B700A303B700C2
:1002C4002303B700A302B7002302B700A301B700BA
:1002D4002301B700A300B7002300B7006780000024
:1002E40093F5F50F93968500B3E5D5009396050134
:1002F400B3E5D5006FF0DFF6939627009702000070
:10030400B386560093820000E78006FA93800200C9
:10031400938707FF3307F7403306F600E378C3F605
:100324006FF0DFF3130101FD232C4101232021038E
:1003340003A9819223261102630C0906232E31019D
:10034400232A5101232861012326710123248102D8
:100354002322910223248101130B0500938B0500B2
:100364009309F0FF930A1000832449001384F4FFD7
:100374006342040293942400B304990063840B043D
:1003840083A74410638077051304F4FF9384C4FFA8
:10039400E31834FF03248102832441028329C10129
:1003A400832A4101032B0101832BC100032C81000B
:1003B4008320C10203290102032A810113010103DD
:1003C400678000008327490083A644009387F7FFD2
:1003D400638A870623A2040063860602832789189A
:1003E40033978A00032C4900B377F700639407021C
:1003F400E78006000327490083A78192631E8703D1
:10040400639C27031304F4FF9384C4FFE31834F7B5
:100414006FF05FF88327C91883A544083377F70082
:100424006316070213050B00E78006000327490043
:1004340083A78192E30687FDE38E07F413890700FF
:100444006FF09FF2232289006FF01FF913850500D6
:10045400E78006006FF01FFA93050500930600007D
:1004640013060000130500006F000006130101FFCE
:1004740023248100B7170100371401009387875A9A
:100484001304445AB3878740232291002326110082
:1004940093D42740638004021304C4FF3304F4009C
:1004A400832704009384F4FF1304C4FFE780070048
:1004B400E39804FE8320C1000324810083244100C7
:1004C400130101016780000083A78192638C0704F4
:1004D40003A747001308F001634EE806131827002A
:1004E40063060502338307012324C30883A88718FE
:1004F400130610003316E600B3E8C80023A4171946
:100504002324D310930620006304D5021307170095
:1005140023A2E700B387070123A4B7001305000053
:1005240067800000938701A823A4F1926FF05FFA1B
:1005340083A6C7181307170023A2E700B3E6C60073
:1005440023A6D718B387070123A4B7001305000017
:10055400678000001305F0FF678000009308D00552
:1005640073000000634405006F000000130101FEE6
:10057400232E11002326A100EF0040018327C10090
:10058400B307F0402320F5006F00000003A501929B
:04059400678000007C
:04059800000000005F
:08159C00E800010098010100C4
:0415A40054010100ED
:1015A80000000000F016010058170100C0170100E4
:1015B8000000000000000000000000000000000023
:1015C8000000000000000000000000000000000013
:1015D8000000000000000000000000000000000003
:1015E80000000000000000000000000000000000F3
:1015F80000000000000000000000000000000000E3
:1016080000000000000000000000000000000000D2
:1016180000000000000000000000000000000000C2
:1016280000000000000000000000000000000000B2
:1016380000000000000000000100000000000000A1
:101648000E33CDAB34126DE6ECDE05000B00000066
:101658000000000000000000000000000000000082
:101668000000000000000000000000000000000072
:101678000000000000000000000000000000000062
:101688000000000000000000000000000000000052
:101698000000000000000000000000000000000042
:1016A8000000000000000000000000000000000032
:1016B8000000000000000000000000000000000022
:0416C800A815010060
:0400000310000100E8
:00000001FF
